{
  "params": {
    "seed": "000102030405060708090a0b0c0d0e0f101112131415161718191a1b1c1d1e1f",
    "funding_amount_lokis": 10000000,
    "dust_limit_lokis": 354,
    "csv_delay": 144,
    "commit_height": 42,
    "nums_point": "02dca094751109d0bd055d03565874e8276dd53e926b44e3bd1bb6bf4bc130a279",
    "keys": {
      "local_funding_privkey": "20ae2d254ab29afd3dcbf8744a5b88d06070f55a4bd5532483a093ac4db91277",
      "local_funding_pubkey": "03b7203dec7c13896b6ff1f58b24f84458c441720a12b5a57426397e22f0a8c78b",
      "remote_funding_privkey": "f0c5500a9dbd7cdcd46ced7bdeb937d4dcbf90f9b9357626e7ee54ab024c3df0",
      "remote_funding_pubkey": "02956e6845a6f346f97c5e028c0f8ab38a76b0124fd7184deab60f682b3e657fdb",
      "local_payment_basepoint_secret": "277975b5b081a9cbc4834e066d7bb494e4fde4f7637257dd3d312a0ae7cb7754",
      "local_payment_basepoint": "03955b6085296cbd2447a1dde0f7e273e19b83e83de1814993b1517aaf193b7f33",
      "remote_payment_basepoint_secret": "f1cd3a5ca44b52baf4eacb849fbf06e75aace97477b8bfe31d2b814dbbb562b1",
      "remote_payment_basepoint": "03595f2ef2a51d2250a21077dbea4a7fc3ce550f10676996bf63719e2a71d1f4c9",
      "local_delayed_payment_basepoint_secret": "83ccf0b638c514db5ebefdc6cbf901505e2bb20edb2bb7248ce1a51523325f9b",
      "local_delayed_payment_basepoint": "02ae68d8ff4c59864c03a42bbff6c07f9ae18047e0daa9bc40d07c410f9a0f7899",
      "remote_revocation_basepoint_secret": "36c4175b91cff9731a63d1472b5b1c4cf3e7b688e87d5fb806b2e8350484e68d",
      "remote_revocation_basepoint": "02c354121ef71922b5cb32fa685c08ac0014b558f96e28f383c45eb28b7da264c3",
      "local_htlc_basepoint_secret": "786eb5024e4851bea3ddc6e40036c81b1efcf50eeed440eedefe5245bde6fc14",
      "local_htlc_basepoint": "033ce88bf3c8333e242996964ac91ee7cd945bfe4c49668ea10f3211f3d418fbc8",
      "remote_htlc_basepoint_secret": "51c9b6cf8279def85e3925bc8f16fc0ff100ee7b03ce7c954149ca29c834b684",
      "remote_htlc_basepoint": "02932dfbf6737001e3c516696ae3dcd323fd91a01ce7898f7f91ab98eebacc323e",
      "local_per_commit_secret": "037b507180b3985cea6396d6a70987cea11ccd05fde49e943a3ea0fe56ee33ed",
      "local_per_commit_point": "02a0f5a09017c1dec2d30dd54a25dc4037fc5a2aa3832ee3c7b58f3a88a0836287",
      "derived_local_delayed_pubkey": "0315ec0138eb42f1ab4603042123988d53c854e89d1d87aa4dbb97a57482029c05",
      "derived_revocation_pubkey": "03d4c77088d346bce67c13bbbf82ca112588f4b1c9595a1f8af3be9b2f95a109a0",
      "derived_local_htlc_pubkey": "0271e82ef65d5c667159036bfcf662cac2f6c41e38323d148bbbd00fdcd923739e",
      "derived_remote_htlc_pubkey": "032deba21cf03c42362c9f912094f62ba045a040a2060882ba1ed3abf1f664a47d",
      "derived_remote_payment_pubkey": "03595f2ef2a51d2250a21077dbea4a7fc3ce550f10676996bf63719e2a71d1f4c9"
    }
  },
  "scripts": {
    "funding": {
      "funding_tx_hex": "02000000010000000000000000000000000000000000000000000000000000000000000000000000000000000000018096980000000000225120d0ebb4909d563a7ae1213fddede4ae54132fba0ef0b97ee3f8469191fecd348e00000000",
      "combined_key": "d0ebb4909d563a7ae1213fddede4ae54132fba0ef0b97ee3f8469191fecd348e",
      "pkscript": "5120d0ebb4909d563a7ae1213fddede4ae54132fba0ef0b97ee3f8469191fecd348e"
    },
    "to_local": {
      "scripts": {
        "revocation": "2015ec0138eb42f1ab4603042123988d53c854e89d1d87aa4dbb97a57482029c057520d4c77088d346bce67c13bbbf82ca112588f4b1c9595a1f8af3be9b2f95a109a0ac",
        "settle": "2015ec0138eb42f1ab4603042123988d53c854e89d1d87aa4dbb97a57482029c05ad029000b2"
      },
      "leaf_hashes": {
        "revocation": "8fcd64d212bbbf1bcec2360bbf229963240d05992fc2efb482fe6dca85b9469a",
        "settle": "dbf0400e9c7c57f30b6ad0b0677e396b5a002cbf050d873c8925b966048e6a62"
      },
      "tapscript_root": "b8b76c2e893ca785072f0d7393e35d5bd72adf8b7ff2a53538aa664378a38a36",
      "internal_key": "02dca094751109d0bd055d03565874e8276dd53e926b44e3bd1bb6bf4bc130a279",
      "output_key": "023e1fcbbd06c8a7414704612c72be9834a75d86ed85b29f0ef0c52e1950afaff3",
      "pkscript": "51203e1fcbbd06c8a7414704612c72be9834a75d86ed85b29f0ef0c52e1950afaff3"
    },
    "to_remote": {
      "scripts": {
        "settle": "20595f2ef2a51d2250a21077dbea4a7fc3ce550f10676996bf63719e2a71d1f4c9ad51b2"
      },
      "leaf_hashes": {
        "settle": "63ce35b16eb8f8687293d5a88c1d8ada3236843b79ca315fe9dd7c47f30f2bc9"
      },
      "tapscript_root": "63ce35b16eb8f8687293d5a88c1d8ada3236843b79ca315fe9dd7c47f30f2bc9",
      "internal_key": "02dca094751109d0bd055d03565874e8276dd53e926b44e3bd1bb6bf4bc130a279",
      "output_key": "023609bb705034e5629aa6ec05c5ca906ac89ac08b34c4583c259521ec30174408",
      "pkscript": "51203609bb705034e5629aa6ec05c5ca906ac89ac08b34c4583c259521ec30174408"
    },
    "local_anchor": {
      "scripts": {
        "sweep": "60b2"
      },
      "leaf_hashes": {
        "sweep": "2b88a8f3f52386d61d5b3f2d822df659c35214d7360ed05352ad7ddc1ab03912"
      },
      "tapscript_root": "2b88a8f3f52386d61d5b3f2d822df659c35214d7360ed05352ad7ddc1ab03912",
      "internal_key": "0315ec0138eb42f1ab4603042123988d53c854e89d1d87aa4dbb97a57482029c05",
      "output_key": "02f67ab012701705f3203d132f909a6810ef18c5da4c11d986cb50818803b8344e",
      "pkscript": "5120f67ab012701705f3203d132f909a6810ef18c5da4c11d986cb50818803b8344e"
    },
    "remote_anchor": {
      "scripts": {
        "sweep": "60b2"
      },
      "leaf_hashes": {
        "sweep": "2b88a8f3f52386d61d5b3f2d822df659c35214d7360ed05352ad7ddc1ab03912"
      },
      "tapscript_root": "2b88a8f3f52386d61d5b3f2d822df659c35214d7360ed05352ad7ddc1ab03912",
      "internal_key": "03595f2ef2a51d2250a21077dbea4a7fc3ce550f10676996bf63719e2a71d1f4c9",
      "output_key": "021249c50576fdf914caa14f9221370b986df520bdbc73f57d5056a86ee03e5ac4",
      "pkscript": "51201249c50576fdf914caa14f9221370b986df520bdbc73f57d5056a86ee03e5ac4"
    },
    "offered_htlc_local_commit": {
      "scripts": {
        "success": "82012088a914b8bcb07f6344b42ab04250c86a6e8b75d3fdbbc688202deba21cf03c42362c9f912094f62ba045a040a2060882ba1ed3abf1f664a47dad51b2",
        "timeout": "2071e82ef65d5c667159036bfcf662cac2f6c41e38323d148bbbd00fdcd923739ead202deba21cf03c42362c9f912094f62ba045a040a2060882ba1ed3abf1f664a47dac"
      },
      "leaf_hashes": {
        "success": "cd4b7ba74d132998f2bcea85f76082f5018e614c86f27f2631b6569c4914320f",
        "timeout": "dd0bd08b3df902c399f5493a682f6c50c476c89e233ba454e89a234d2d16ffe3"
      },
      "tapscript_root": "f36c8bd45002c5264cfce9944211e7bc6ea974a6b90cf99a87812d18acf28a2a",
      "internal_key": "03d4c77088d346bce67c13bbbf82ca112588f4b1c9595a1f8af3be9b2f95a109a0",
      "output_key": "033e5c3be9f4ce7ae07c28ad5e0eb0ab617c06eeb82b8d6ef10a5bf561848df5f0",
      "pkscript": "51203e5c3be9f4ce7ae07c28ad5e0eb0ab617c06eeb82b8d6ef10a5bf561848df5f0"
    },
    "offered_htlc_remote_commit": {
      "scripts": {
        "success": "82012088a914b8bcb07f6344b42ab04250c86a6e8b75d3fdbbc688202deba21cf03c42362c9f912094f62ba045a040a2060882ba1ed3abf1f664a47dad51b2",
        "timeout": "2071e82ef65d5c667159036bfcf662cac2f6c41e38323d148bbbd00fdcd923739ead202deba21cf03c42362c9f912094f62ba045a040a2060882ba1ed3abf1f664a47dac"
      },
      "leaf_hashes": {
        "success": "cd4b7ba74d132998f2bcea85f76082f5018e614c86f27f2631b6569c4914320f",
        "timeout": "dd0bd08b3df902c399f5493a682f6c50c476c89e233ba454e89a234d2d16ffe3"
      },
      "tapscript_root": "f36c8bd45002c5264cfce9944211e7bc6ea974a6b90cf99a87812d18acf28a2a",
      "internal_key": "03d4c77088d346bce67c13bbbf82ca112588f4b1c9595a1f8af3be9b2f95a109a0",
      "output_key": "033e5c3be9f4ce7ae07c28ad5e0eb0ab617c06eeb82b8d6ef10a5bf561848df5f0",
      "pkscript": "51203e5c3be9f4ce7ae07c28ad5e0eb0ab617c06eeb82b8d6ef10a5bf561848df5f0"
    },
    "accepted_htlc_local_commit": {
      "scripts": {
        "success": "82012088a914b8bcb07f6344b42ab04250c86a6e8b75d3fdbbc688202deba21cf03c42362c9f912094f62ba045a040a2060882ba1ed3abf1f664a47dad2071e82ef65d5c667159036bfcf662cac2f6c41e38323d148bbbd00fdcd923739eac",
        "timeout": "2071e82ef65d5c667159036bfcf662cac2f6c41e38323d148bbbd00fdcd923739ead51b26902f401b1"
      },
      "leaf_hashes": {
        "success": "69192ca730d4480044ade8741b8bd0845a32880aebaf58bc6f9186f8d2be8cbf",
        "timeout": "4da43c795365bf757ed1e9656d12ea744b4cf52b01719a3ea94e6569115623f0"
      },
      "tapscript_root": "1a990caa4bb0ed41ceb19e7466fcea5d9b31e3da968f348f6223201c5831d0a3",
      "internal_key": "03d4c77088d346bce67c13bbbf82ca112588f4b1c9595a1f8af3be9b2f95a109a0",
      "output_key": "029aadbdd9aff986e5ea086cf53ae062972d33d0a5c7f5fb986dafec7fa6d7e6ea",
      "pkscript": "51209aadbdd9aff986e5ea086cf53ae062972d33d0a5c7f5fb986dafec7fa6d7e6ea"
    },
    "accepted_htlc_remote_commit": {
      "scripts": {
        "success": "82012088a914b8bcb07f6344b42ab04250c86a6e8b75d3fdbbc688202deba21cf03c42362c9f912094f62ba045a040a2060882ba1ed3abf1f664a47dad2071e82ef65d5c667159036bfcf662cac2f6c41e38323d148bbbd00fdcd923739eac",
        "timeout": "2071e82ef65d5c667159036bfcf662cac2f6c41e38323d148bbbd00fdcd923739ead51b26902f401b1"
      },
      "leaf_hashes": {
        "success": "69192ca730d4480044ade8741b8bd0845a32880aebaf58bc6f9186f8d2be8cbf",
        "timeout": "4da43c795365bf757ed1e9656d12ea744b4cf52b01719a3ea94e6569115623f0"
      },
      "tapscript_root": "1a990caa4bb0ed41ceb19e7466fcea5d9b31e3da968f348f6223201c5831d0a3",
      "internal_key": "03d4c77088d346bce67c13bbbf82ca112588f4b1c9595a1f8af3be9b2f95a109a0",
      "output_key": "029aadbdd9aff986e5ea086cf53ae062972d33d0a5c7f5fb986dafec7fa6d7e6ea",
      "pkscript": "51209aadbdd9aff986e5ea086cf53ae062972d33d0a5c7f5fb986dafec7fa6d7e6ea"
    },
    "second_level_htlc_success": {
      "scripts": {
        "success": "2015ec0138eb42f1ab4603042123988d53c854e89d1d87aa4dbb97a57482029c05ad029000b2"
      },
      "leaf_hashes": {
        "success": "dbf0400e9c7c57f30b6ad0b0677e396b5a002cbf050d873c8925b966048e6a62"
      },
      "tapscript_root": "dbf0400e9c7c57f30b6ad0b0677e396b5a002cbf050d873c8925b966048e6a62",
      "internal_key": "03d4c77088d346bce67c13bbbf82ca112588f4b1c9595a1f8af3be9b2f95a109a0",
      "output_key": "02df20bcec43daa75161f7d013254e401812e0fee8bc3369220b6a33672fc18ba0",
      "pkscript": "5120df20bcec43daa75161f7d013254e401812e0fee8bc3369220b6a33672fc18ba0"
    },
    "second_level_htlc_timeout": {
      "scripts": {
        "success": "2015ec0138eb42f1ab4603042123988d53c854e89d1d87aa4dbb97a57482029c05ad029000b2"
      },
      "leaf_hashes": {
        "success": "dbf0400e9c7c57f30b6ad0b0677e396b5a002cbf050d873c8925b966048e6a62"
      },
      "tapscript_root": "dbf0400e9c7c57f30b6ad0b0677e396b5a002cbf050d873c8925b966048e6a62",
      "internal_key": "03d4c77088d346bce67c13bbbf82ca112588f4b1c9595a1f8af3be9b2f95a109a0",
      "output_key": "02df20bcec43daa75161f7d013254e401812e0fee8bc3369220b6a33672fc18ba0",
      "pkscript": "5120df20bcec43daa75161f7d013254e401812e0fee8bc3369220b6a33672fc18ba0"
    }
  },
  "transactions": [
    {
      "name": "simple commitment tx with no HTLCs",
      "local_balance_msat": 7000000000,
      "remote_balance_msat": 3000000000,
      "fee_per_kw": 15000,
      "htlcs": null,
      "local_nonce": "033dc8efb6eff63885a28f5564c0ec1c100627936d9cb0f5966ee6db5d46f20cac031a9648e1cceaff3dd653e469bed5587692cb135b3b9b189285a9f5bdc2fb2bc0",
      "remote_nonce": "021b47e33794357f2101ab0fd96f338e6e0cd440ecf3f79f616d85dc07be5061d60324ba61e4f39efa93ac1f395b5a4b635469caa2b2c925391dc73f80cfeb0446c3",
      "remote_partial_sig": "8285fd73bb9fb1070108ff0f89ed839ce1a942c34946bcb1fa5804ad8012852f",
      "expected_commitment_tx_hex": "020000000001015474cba49124ab0c4327c244bb2907059585c4af3fa5f3469701534120fec0170000000000c5fe1780044a010000000000002251201249c50576fdf914caa14f9221370b986df520bdbc73f57d5056a86ee03e5ac44a01000000000000225120f67ab012701705f3203d132f909a6810ef18c5da4c11d986cb50818803b8344ec0c62d00000000002251206b1a8421cb92be16a6a754426d4a6df8bfb7e2cd16d07c654039294a1df7328b74946a00000000002251207b49ec6082e5fe6cd59ab23ab3030a918928dab1e3ea202b5c0faba770a830bf014029d716000d133401ffd768f37b8662e4691c69b87da7f9ed6490cda2e6eac940b4142c05e52dcfc9c9c718775a14196490bc5e9087e4c210f1b583d06121829255dc1920",
      "htlc_descs": null
    },
    {
      "name": "commitment tx with five HTLCs untrimmed",
      "local_balance_msat": 6988000000,
      "remote_balance_msat": 3000000000,
      "fee_per_kw": 644,
      "htlcs": [
        {
          "incoming": true,
          "amount_msat": 1000000,
          "expiry": 500,
          "preimage": "0000000000000000000000000000000000000000000000000000000000000000"
        },
        {
          "incoming": true,
          "amount_msat": 2000000,
          "expiry": 501,
          "preimage": "0101010101010101010101010101010101010101010101010101010101010101"
        },
        {
          "incoming": false,
          "amount_msat": 2000000,
          "expiry": 502,
          "preimage": "0202020202020202020202020202020202020202020202020202020202020202"
        },
        {
          "incoming": false,
          "amount_msat": 3000000,
          "expiry": 503,
          "preimage": "0303030303030303030303030303030303030303030303030303030303030303"
        },
        {
          "incoming": true,
          "amount_msat": 4000000,
          "expiry": 504,
          "preimage": "0404040404040404040404040404040404040404040404040404040404040404"
        }
      ],
      "local_nonce": "0273f931a0bd52360bbf780caba966c2d339cf95aca99ba97d16bd9bdbe05e5dae037096e00778185b0facf6db866506af171c017546bf284ea6625ec9562c58f8e8",
      "remote_nonce": "02571b0ca03f6c50ed37d3d5024600d972bfd897f857321a3e1beb55b3a58dce6b03514fd5c09682264b42669318a0fd083c045789f0aa8bf9ec9291dec8601618e3",
      "remote_partial_sig": "0eb37eb9adede844aa1219df4cff56d1eebc9750abf271147e484875c1896bb6",
      "expected_commitment_tx_hex": "020000000001015474cba49124ab0c4327c244bb2907059585c4af3fa5f3469701534120fec0170000000000c5fe1780094a010000000000002251201249c50576fdf914caa14f9221370b986df520bdbc73f57d5056a86ee03e5ac44a01000000000000225120f67ab012701705f3203d132f909a6810ef18c5da4c11d986cb50818803b8344ee803000000000000225120a11d87c071c8f1c108208e7c4681db789ff3446607de3fef54fc301df8df61acd0070000000000002251206afa284bc4fea5fc031c5922b2fe384c6e3a272edde43f8d89745264d99b0640d007000000000000225120ab3a536cf8c349072ea3a93747b5db43548ccbab84b26c98f90b9e86ac2886a8b80b000000000000225120946e343ba2747394245bfbb00abd8bdaa47535f0714aec1ae8916bac1c87c853a00f0000000000002251205d9a6f362293dfab42ccc592016aff45e13a85f49936b4a558fe49905e13c780c0c62d00000000002251206b1a8421cb92be16a6a754426d4a6df8bfb7e2cd16d07c654039294a1df7328bb3996a00000000002251207b49ec6082e5fe6cd59ab23ab3030a918928dab1e3ea202b5c0faba770a830bf0140a6a7d0e75c3d6527177c2168e0f340bf759e29698fe1048d1c83c663f46adc33020466b8b50c6469bf882a1e3ad15e00f4226f1d8ba9dc339f5e0150d58e34ca55dc1920",
      "htlc_descs": [
        {
          "remote_partial_sig_hex": "63016a73c4fc46e5a3d734db4ece206c18903280039b24de71970a6e770a08b912fa608e8004ccb13cc023aba46f70be9d959fbf9bf845d09c7bdfb3847ad620",
          "resolution_tx_hex": "02000000000101ec3f2229ffe98820f27181119e26b81256bb7409084c4012353423742b6b47d202000000000100000001e8030000000000002251205cf3964a0c10272a8fb62e9e1b87afb712265641eb89462f2df18cf1f43cf0c3054163016a73c4fc46e5a3d734db4ece206c18903280039b24de71970a6e770a08b912fa608e8004ccb13cc023aba46f70be9d959fbf9bf845d09c7bdfb3847ad6208340e87db41713abb1a990e6ae814b26300d631970e69f03d8b1e74ce77bb1c7bb5ca5fc8cb939fe69dfea08bb132c90e8ccbbee611cac4d856fdf47298c62ae2c232000000000000000000000000000000000000000000000000000000000000000005f82012088a914b8bcb07f6344b42ab04250c86a6e8b75d3fdbbc6882071e82ef65d5c667159036bfcf662cac2f6c41e38323d148bbbd00fdcd923739ead202deba21cf03c42362c9f912094f62ba045a040a2060882ba1ed3abf1f664a47dac41c1d4c77088d346bce67c13bbbf82ca112588f4b1c9595a1f8af3be9b2f95a109a0a3c6dea0d4ccbe13a8f8b8d790757fe6e5350632d5d9c5e1c9f64e67f5374f9a00000000"
        },
        {
          "remote_partial_sig_hex": "9f2c49e082b6420cf3d2510f607f081cd1ef90de6369e805df4842c159253f8bdbf9d763c5f446d7ebbd78e6ba9de9d913270b02987eeb2a32d46e2acbe517f8",
          "resolution_tx_hex": "02000000000101ec3f2229ffe98820f27181119e26b81256bb7409084c4012353423742b6b47d203000000000100000001d0070000000000002251205cf3964a0c10272a8fb62e9e1b87afb712265641eb89462f2df18cf1f43cf0c304419f2c49e082b6420cf3d2510f607f081cd1ef90de6369e805df4842c159253f8bdbf9d763c5f446d7ebbd78e6ba9de9d913270b02987eeb2a32d46e2acbe517f8834090f9631dcdf7a6aaa7671d1c0425b370cb240b910433d978eab36da6bd6d74ee7e5cf26a9e4f28bb6c8537f73c761802798b362b5f842ddbd9a0b4c8246b7067442071e82ef65d5c667159036bfcf662cac2f6c41e38323d148bbbd00fdcd923739ead202deba21cf03c42362c9f912094f62ba045a040a2060882ba1ed3abf1f664a47dac41c0d4c77088d346bce67c13bbbf82ca112588f4b1c9595a1f8af3be9b2f95a109a02fada14889d4882f1313370fab37e58afe477111219865f69cefb015192b4a05f6010000"
        },
        {
          "remote_partial_sig_hex": "42ca042be9a1db68ef2d19dbe9fd6b579455e117b2f698dfd3bda86c312c15595fc30dd3e7e36b49b94f89d756457b5762ed73644be54d9a44375f781b6edaad",
          "resolution_tx_hex": "02000000000101ec3f2229ffe98820f27181119e26b81256bb7409084c4012353423742b6b47d204000000000100000001d0070000000000002251205cf3964a0c10272a8fb62e9e1b87afb712265641eb89462f2df18cf1f43cf0c3054142ca042be9a1db68ef2d19dbe9fd6b579455e117b2f698dfd3bda86c312c15595fc30dd3e7e36b49b94f89d756457b5762ed73644be54d9a44375f781b6edaad8340a19ca86775e3d19be16c4a33b08aec12c8933e7cab35d4f65e89cbbb1f2daa2ea0190cfa7c88bdfdb86a7920a084a494814f688d3d85a343c11840c22c441ef22001010101010101010101010101010101010101010101010101010101010101015f82012088a9144b6b2e5444c2639cc0fb7bcea5afba3f3cdce239882071e82ef65d5c667159036bfcf662cac2f6c41e38323d148bbbd00fdcd923739ead202deba21cf03c42362c9f912094f62ba045a040a2060882ba1ed3abf1f664a47dac41c1d4c77088d346bce67c13bbbf82ca112588f4b1c9595a1f8af3be9b2f95a109a0cb0d073aaaf0b60456ecd710933d0dc81ae2772e7906ca3ca85b519b68b4a1d100000000"
        },
        {
          "remote_partial_sig_hex": "a1bcef39ed239801d7a38d1ea0ab5d23d5b9c0d1f611597174c88bd2e5f69a53f95f7e3fe51d206560e8e46f4a1aae6660e1179f68ca59a51c0d5c3bff7e617f",
          "resolution_tx_hex": "02000000000101ec3f2229ffe98820f27181119e26b81256bb7409084c4012353423742b6b47d205000000000100000001b80b0000000000002251205cf3964a0c10272a8fb62e9e1b87afb712265641eb89462f2df18cf1f43cf0c30441a1bcef39ed239801d7a38d1ea0ab5d23d5b9c0d1f611597174c88bd2e5f69a53f95f7e3fe51d206560e8e46f4a1aae6660e1179f68ca59a51c0d5c3bff7e617f8340ca0a17a8644e13259a2f248c3b79203a8c3178aa4c48c98a3102e8c64738ae80ddd4ac0ebb826e02cd12c32d9e23fd32765a48546a7385b3fefa13ff0d9f30b4442071e82ef65d5c667159036bfcf662cac2f6c41e38323d148bbbd00fdcd923739ead202deba21cf03c42362c9f912094f62ba045a040a2060882ba1ed3abf1f664a47dac41c0d4c77088d346bce67c13bbbf82ca112588f4b1c9595a1f8af3be9b2f95a109a08e1e3df034837aaa471c090e5b8b821eafc1f99b34d4e5aa6e502fcdefae41f7f7010000"
        },
        {
          "remote_partial_sig_hex": "542712c4b1e48d748b3e5335ba6555dc859a78981a2b35be1e172cea52bc0a2244e057efd7b597228caa3ab1b5d9eccedf1895b0984bc93134e57e9163c7e312",
          "resolution_tx_hex": "02000000000101ec3f2229ffe98820f27181119e26b81256bb7409084c4012353423742b6b47d206000000000100000001a00f0000000000002251205cf3964a0c10272a8fb62e9e1b87afb712265641eb89462f2df18cf1f43cf0c30541542712c4b1e48d748b3e5335ba6555dc859a78981a2b35be1e172cea52bc0a2244e057efd7b597228caa3ab1b5d9eccedf1895b0984bc93134e57e9163c7e3128340881306d678d777f63c75458cbb235ac32f8dea75468ad088b2b5959b86083280f801d39d39db518cb4f37ef3105b31ca209f3a3a555b1c8d1a0e7073cdcf2c4b2004040404040404040404040404040404040404040404040404040404040404045f82012088a91418bc1a114ccf9c052d3d23e28d3b0a9d12274342882071e82ef65d5c667159036bfcf662cac2f6c41e38323d148bbbd00fdcd923739ead202deba21cf03c42362c9f912094f62ba045a040a2060882ba1ed3abf1f664a47dac41c0d4c77088d346bce67c13bbbf82ca112588f4b1c9595a1f8af3be9b2f95a109a0a1a0148f4df18a58d401e2543ff1eeb65fc80833a1604b18882e5e3fedec058600000000"
        }
      ]
    },
    {
      "name": "commitment tx with some HTLCs trimmed",
      "local_balance_msat": 6988000000,
      "remote_balance_msat": 3000000000,
      "fee_per_kw": 644,
      "dust_limit_lokis": 2500,
      "htlcs": [
        {
          "incoming": true,
          "amount_msat": 1000000,
          "expiry": 500,
          "preimage": "0000000000000000000000000000000000000000000000000000000000000000"
        },
        {
          "incoming": true,
          "amount_msat": 2000000,
          "expiry": 501,
          "preimage": "0101010101010101010101010101010101010101010101010101010101010101"
        },
        {
          "incoming": false,
          "amount_msat": 2000000,
          "expiry": 502,
          "preimage": "0202020202020202020202020202020202020202020202020202020202020202"
        },
        {
          "incoming": false,
          "amount_msat": 3000000,
          "expiry": 503,
          "preimage": "0303030303030303030303030303030303030303030303030303030303030303"
        },
        {
          "incoming": true,
          "amount_msat": 4000000,
          "expiry": 504,
          "preimage": "0404040404040404040404040404040404040404040404040404040404040404"
        }
      ],
      "local_nonce": "020236c5b05894bc373fadfc01654da87fce6c79dfa4403d48ef472a564076b41a026d51b2c0b08d6ee16cdac211c015485b31dfc34e101582f01a4e2500d6633000",
      "remote_nonce": "03f32b9eeaf8577a45554abd0fa16b83d5618328327a5763d1ec8c1b0f88ae42790252d8d6615915c3c818d21eeed062fd8c9f3b8be4fc9060bd971ef71b1b2c1a09",
      "remote_partial_sig": "fe108e9d9cd152bbc7ae5041021463f7637561e322331fb674d85555b5b21854",
      "expected_commitment_tx_hex": "020000000001015474cba49124ab0c4327c244bb2907059585c4af3fa5f3469701534120fec0170000000000c5fe1780064a010000000000002251201249c50576fdf914caa14f9221370b986df520bdbc73f57d5056a86ee03e5ac44a01000000000000225120f67ab012701705f3203d132f909a6810ef18c5da4c11d986cb50818803b8344eb80b000000000000225120946e343ba2747394245bfbb00abd8bdaa47535f0714aec1ae8916bac1c87c853a00f0000000000002251205d9a6f362293dfab42ccc592016aff45e13a85f49936b4a558fe49905e13c780c0c62d00000000002251206b1a8421cb92be16a6a754426d4a6df8bfb7e2cd16d07c654039294a1df7328b009b6a00000000002251207b49ec6082e5fe6cd59ab23ab3030a918928dab1e3ea202b5c0faba770a830bf01400f622807c7c4511cdb69c9cb62c8ec91fd40fe8555b59c2804629e2e911844c77751132fedaf98157b7d7c7a62934459de73ce9fb77699141f65acb98af52fd555dc1920",
      "htlc_descs": [
        {
          "remote_partial_sig_hex": "16af769abbd20372ae4ef4d7cfcfd1f05aa4412d23418efd82701895ab4d0fc540188a6f0c1cb1491bb9bf60fb712ffab07eca02866b7c1bb9962ed27b96ae6b",
          "resolution_tx_hex": "020000000001019ffea3c6fc999250a9fdc198061320c2254fe6440204062e097a88efdc63b01802000000000100000001b80b0000000000002251205cf3964a0c10272a8fb62e9e1b87afb712265641eb89462f2df18cf1f43cf0c3044116af769abbd20372ae4ef4d7cfcfd1f05aa4412d23418efd82701895ab4d0fc540188a6f0c1cb1491bb9bf60fb712ffab07eca02866b7c1bb9962ed27b96ae6b8340599a5e2d1dd3e219f762cf2661c0a0d3169ea653e409bdfa070d171d8a27168d98c9c5ed3643ac9a5aeb29bb64cdb457f1f66ba6cd5dec2e4b7cad16d80ba863442071e82ef65d5c667159036bfcf662cac2f6c41e38323d148bbbd00fdcd923739ead202deba21cf03c42362c9f912094f62ba045a040a2060882ba1ed3abf1f664a47dac41c0d4c77088d346bce67c13bbbf82ca112588f4b1c9595a1f8af3be9b2f95a109a08e1e3df034837aaa471c090e5b8b821eafc1f99b34d4e5aa6e502fcdefae41f7f7010000"
        },
        {
          "remote_partial_sig_hex": "53560670a0fa3f455b8456d378c0bef23ebdad8aec27e9792c14cb8d999a3e305042f7c30f1d1d1b03803dbd0eb97bc4f5fc3f6abe7f93381686360ad852878a",
          "resolution_tx_hex": "020000000001019ffea3c6fc999250a9fdc198061320c2254fe6440204062e097a88efdc63b01803000000000100000001a00f0000000000002251205cf3964a0c10272a8fb62e9e1b87afb712265641eb89462f2df18cf1f43cf0c3054153560670a0fa3f455b8456d378c0bef23ebdad8aec27e9792c14cb8d999a3e305042f7c30f1d1d1b03803dbd0eb97bc4f5fc3f6abe7f93381686360ad852878a8340b7dc3dc617147e7a4092988c32450eaf20130b8789415b15c74147ad1528a3b998b1cfdf521e33a6ddc3ea298af53ab25b12ee1886665f4df97e45400448adf32004040404040404040404040404040404040404040404040404040404040404045f82012088a91418bc1a114ccf9c052d3d23e28d3b0a9d12274342882071e82ef65d5c667159036bfcf662cac2f6c41e38323d148bbbd00fdcd923739ead202deba21cf03c42362c9f912094f62ba045a040a2060882ba1ed3abf1f664a47dac41c0d4c77088d346bce67c13bbbf82ca112588f4b1c9595a1f8af3be9b2f95a109a0a1a0148f4df18a58d401e2543ff1eeb65fc80833a1604b18882e5e3fedec058600000000"
        }
      ]
    }
  ]
}